{
  "contractName": "NFT",
  "abi": [
    {
      "inputs": [],
      "stateMutability": "nonpayable",
      "type": "constructor"
    },
    {
      "anonymous": false,
      "inputs": [
        {
          "indexed": true,
          "internalType": "address",
          "name": "owner",
          "type": "address"
        },
        {
          "indexed": true,
          "internalType": "address",
          "name": "approved",
          "type": "address"
        },
        {
          "indexed": true,
          "internalType": "uint256",
          "name": "tokenId",
          "type": "uint256"
        }
      ],
      "name": "Approval",
      "type": "event"
    },
    {
      "anonymous": false,
      "inputs": [
        {
          "indexed": true,
          "internalType": "address",
          "name": "owner",
          "type": "address"
        },
        {
          "indexed": true,
          "internalType": "address",
          "name": "operator",
          "type": "address"
        },
        {
          "indexed": false,
          "internalType": "bool",
          "name": "approved",
          "type": "bool"
        }
      ],
      "name": "ApprovalForAll",
      "type": "event"
    },
    {
      "anonymous": false,
      "inputs": [
        {
          "indexed": false,
          "internalType": "uint256",
          "name": "listingId",
          "type": "uint256"
        },
        {
          "indexed": false,
          "internalType": "address",
          "name": "seller",
          "type": "address"
        },
        {
          "indexed": false,
          "internalType": "uint256",
          "name": "tokenId",
          "type": "uint256"
        },
        {
          "indexed": false,
          "internalType": "uint256",
          "name": "price",
          "type": "uint256"
        }
      ],
      "name": "Listed",
      "type": "event"
    },
    {
      "anonymous": false,
      "inputs": [
        {
          "indexed": true,
          "internalType": "address",
          "name": "from",
          "type": "address"
        },
        {
          "indexed": true,
          "internalType": "address",
          "name": "to",
          "type": "address"
        },
        {
          "indexed": true,
          "internalType": "uint256",
          "name": "tokenId",
          "type": "uint256"
        }
      ],
      "name": "Transfer",
      "type": "event"
    },
    {
      "inputs": [
        {
          "internalType": "address",
          "name": "to",
          "type": "address"
        },
        {
          "internalType": "uint256",
          "name": "tokenId",
          "type": "uint256"
        }
      ],
      "name": "approve",
      "outputs": [],
      "stateMutability": "nonpayable",
      "type": "function"
    },
    {
      "inputs": [
        {
          "internalType": "address",
          "name": "owner",
          "type": "address"
        }
      ],
      "name": "balanceOf",
      "outputs": [
        {
          "internalType": "uint256",
          "name": "",
          "type": "uint256"
        }
      ],
      "stateMutability": "view",
      "type": "function"
    },
    {
      "inputs": [
        {
          "internalType": "uint256",
          "name": "tokenId",
          "type": "uint256"
        }
      ],
      "name": "getApproved",
      "outputs": [
        {
          "internalType": "address",
          "name": "",
          "type": "address"
        }
      ],
      "stateMutability": "view",
      "type": "function"
    },
    {
      "inputs": [
        {
          "internalType": "address",
          "name": "owner",
          "type": "address"
        },
        {
          "internalType": "address",
          "name": "operator",
          "type": "address"
        }
      ],
      "name": "isApprovedForAll",
      "outputs": [
        {
          "internalType": "bool",
          "name": "",
          "type": "bool"
        }
      ],
      "stateMutability": "view",
      "type": "function"
    },
    {
      "inputs": [],
      "name": "name",
      "outputs": [
        {
          "internalType": "string",
          "name": "",
          "type": "string"
        }
      ],
      "stateMutability": "view",
      "type": "function"
    },
    {
      "inputs": [
        {
          "internalType": "uint256",
          "name": "tokenId",
          "type": "uint256"
        }
      ],
      "name": "ownerOf",
      "outputs": [
        {
          "internalType": "address",
          "name": "",
          "type": "address"
        }
      ],
      "stateMutability": "view",
      "type": "function"
    },
    {
      "inputs": [
        {
          "internalType": "address",
          "name": "from",
          "type": "address"
        },
        {
          "internalType": "address",
          "name": "to",
          "type": "address"
        },
        {
          "internalType": "uint256",
          "name": "tokenId",
          "type": "uint256"
        }
      ],
      "name": "safeTransferFrom",
      "outputs": [],
      "stateMutability": "nonpayable",
      "type": "function"
    },
    {
      "inputs": [
        {
          "internalType": "address",
          "name": "from",
          "type": "address"
        },
        {
          "internalType": "address",
          "name": "to",
          "type": "address"
        },
        {
          "internalType": "uint256",
          "name": "tokenId",
          "type": "uint256"
        },
        {
          "internalType": "bytes",
          "name": "data",
          "type": "bytes"
        }
      ],
      "name": "safeTransferFrom",
      "outputs": [],
      "stateMutability": "nonpayable",
      "type": "function"
    },
    {
      "inputs": [
        {
          "internalType": "address",
          "name": "operator",
          "type": "address"
        },
        {
          "internalType": "bool",
          "name": "approved",
          "type": "bool"
        }
      ],
      "name": "setApprovalForAll",
      "outputs": [],
      "stateMutability": "nonpayable",
      "type": "function"
    },
    {
      "inputs": [
        {
          "internalType": "bytes4",
          "name": "interfaceId",
          "type": "bytes4"
        }
      ],
      "name": "supportsInterface",
      "outputs": [
        {
          "internalType": "bool",
          "name": "",
          "type": "bool"
        }
      ],
      "stateMutability": "view",
      "type": "function"
    },
    {
      "inputs": [],
      "name": "symbol",
      "outputs": [
        {
          "internalType": "string",
          "name": "",
          "type": "string"
        }
      ],
      "stateMutability": "view",
      "type": "function"
    },
    {
      "inputs": [
        {
          "internalType": "uint256",
          "name": "tokenId",
          "type": "uint256"
        }
      ],
      "name": "tokenURI",
      "outputs": [
        {
          "internalType": "string",
          "name": "",
          "type": "string"
        }
      ],
      "stateMutability": "view",
      "type": "function"
    },
    {
      "inputs": [
        {
          "internalType": "address",
          "name": "from",
          "type": "address"
        },
        {
          "internalType": "address",
          "name": "to",
          "type": "address"
        },
        {
          "internalType": "uint256",
          "name": "tokenId",
          "type": "uint256"
        }
      ],
      "name": "transferFrom",
      "outputs": [],
      "stateMutability": "nonpayable",
      "type": "function"
    },
    {
      "inputs": [
        {
          "internalType": "address",
          "name": "to",
          "type": "address"
        },
        {
          "internalType": "uint256",
          "name": "tokenId",
          "type": "uint256"
        },
        {
          "internalType": "string",
          "name": "name",
          "type": "string"
        },
        {
          "internalType": "string",
          "name": "description",
          "type": "string"
        }
      ],
      "name": "mint",
      "outputs": [],
      "stateMutability": "nonpayable",
      "type": "function"
    },
    {
      "inputs": [
        {
          "internalType": "uint256",
          "name": "tokenId",
          "type": "uint256"
        }
      ],
      "name": "getTokenData",
      "outputs": [
        {
          "components": [
            {
              "internalType": "string",
              "name": "name",
              "type": "string"
            },
            {
              "internalType": "string",
              "name": "description",
              "type": "string"
            }
          ],
          "internalType": "struct NFT.TokenData",
          "name": "",
          "type": "tuple"
        }
      ],
      "stateMutability": "view",
      "type": "function"
    },
    {
      "inputs": [
        {
          "internalType": "uint256",
          "name": "tokenId",
          "type": "uint256"
        },
        {
          "internalType": "uint256",
          "name": "price",
          "type": "uint256"
        },
        {
          "internalType": "uint256",
          "name": "listingId",
          "type": "uint256"
        }
      ],
      "name": "listToken",
      "outputs": [],
      "stateMutability": "nonpayable",
      "type": "function"
    },
    {
      "inputs": [
        {
          "internalType": "uint256",
          "name": "listingId",
          "type": "uint256"
        }
      ],
      "name": "getListing",
      "outputs": [
        {
          "components": [
            {
              "internalType": "enum NFT.ListingStatus",
              "name": "status",
              "type": "uint8"
            },
            {
              "internalType": "address",
              "name": "seller",
              "type": "address"
            },
            {
              "internalType": "uint256",
              "name": "tokenId",
              "type": "uint256"
            },
            {
              "internalType": "uint256",
              "name": "price",
              "type": "uint256"
            }
          ],
          "internalType": "struct NFT.Listing",
          "name": "",
          "type": "tuple"
        }
      ],
      "stateMutability": "view",
      "type": "function"
    },
    {
      "inputs": [
        {
          "internalType": "uint256",
          "name": "listingId",
          "type": "uint256"
        }
      ],
      "name": "buyToken",
      "outputs": [],
      "stateMutability": "payable",
      "type": "function"
    },
    {
      "inputs": [
        {
          "internalType": "uint256",
          "name": "listingId",
          "type": "uint256"
        }
      ],
      "name": "cancel",
      "outputs": [],
      "stateMutability": "nonpayable",
      "type": "function"
    }
  ],
  "bytecode": "0x60806040523480156200001157600080fd5b506040518060400160405280600b81526020017f436f6f6c657374204e46540000000000000000000000000000000000000000008152506040518060400160405280600381526020017f4e4654000000000000000000000000000000000000000000000000000000000081525081600090816200008f919062000324565b508060019081620000a1919062000324565b5050506200040b565b600081519050919050565b7f4e487b7100000000000000000000000000000000000000000000000000000000600052604160045260246000fd5b7f4e487b7100000000000000000000000000000000000000000000000000000000600052602260045260246000fd5b600060028204905060018216806200012c57607f821691505b602082108103620001425762000141620000e4565b5b50919050565b60008190508160005260206000209050919050565b60006020601f8301049050919050565b600082821b905092915050565b600060088302620001ac7fffffffffffffffffffffffffffffffffffffffffffffffffffffffffffffffff826200016d565b620001b886836200016d565b95508019841693508086168417925050509392505050565b6000819050919050565b6000819050919050565b600062000205620001ff620001f984620001d0565b620001da565b620001d0565b9050919050565b6000819050919050565b6200022183620001e4565b6200023962000230826200020c565b8484546200017a565b825550505050565b600090565b6200025062000241565b6200025d81848462000216565b505050565b5b8181101562000285576200027960008262000246565b60018101905062000263565b5050565b601f821115620002d4576200029e8162000148565b620002a9846200015d565b81016020851015620002b9578190505b620002d1620002c8856200015d565b83018262000262565b50505b505050565b600082821c905092915050565b6000620002f960001984600802620002d9565b1980831691505092915050565b6000620003148383620002e6565b9150826002028217905092915050565b6200032f82620000aa565b67ffffffffffffffff8111156200034b576200034a620000b5565b5b62000357825462000113565b6200036482828562000289565b600060209050601f8311600181146200039c576000841562000387578287015190505b62000393858262000306565b86555062000403565b601f198416620003ac8662000148565b60005b82811015620003d657848901518255600182019150602085019450602081019050620003af565b86831015620003f65784890151620003f2601f891682620002e6565b8355505b6001600288020188555050505b505050505050565b613735806200041b6000396000f3fe6080604052600436106101145760003560e01c806342842e0e116100a0578063b09afec111610064578063b09afec1146103b2578063b88d4fde146103ef578063bce64a7d14610418578063c87b56dd14610441578063e985e9c51461047e57610114565b806342842e0e146102bb5780636352211e146102e457806370a082311461032157806395d89b411461035e578063a22cb4651461038957610114565b8063107a274a116100e7578063107a274a146101e757806323b872dd146102245780632d296bf11461024d5780632fb102cf1461026957806340e58ee51461029257610114565b806301ffc9a71461011957806306fdde0314610156578063081812fc14610181578063095ea7b3146101be575b600080fd5b34801561012557600080fd5b50610140600480360381019061013b9190612218565b6104bb565b60405161014d9190612260565b60405180910390f35b34801561016257600080fd5b5061016b61059d565b604051610178919061230b565b60405180910390f35b34801561018d57600080fd5b506101a860048036038101906101a39190612363565b61062f565b6040516101b591906123d1565b60405180910390f35b3480156101ca57600080fd5b506101e560048036038101906101e09190612418565b610675565b005b3480156101f357600080fd5b5061020e60048036038101906102099190612363565b61078c565b60405161021b9190612542565b60405180910390f35b34801561023057600080fd5b5061024b6004803603810190610246919061255d565b61085e565b005b61026760048036038101906102629190612363565b6108be565b005b34801561027557600080fd5b50610290600480360381019061028b91906126e5565b610b3a565b005b34801561029e57600080fd5b506102b960048036038101906102b49190612363565b610b9e565b005b3480156102c757600080fd5b506102e260048036038101906102dd919061255d565b610d63565b005b3480156102f057600080fd5b5061030b60048036038101906103069190612363565b610d83565b60405161031891906123d1565b60405180910390f35b34801561032d57600080fd5b5061034860048036038101906103439190612784565b610e09565b60405161035591906127c0565b60405180910390f35b34801561036a57600080fd5b50610373610ec0565b604051610380919061230b565b60405180910390f35b34801561039557600080fd5b506103b060048036038101906103ab9190612807565b610f52565b005b3480156103be57600080fd5b506103d960048036038101906103d49190612363565b610f68565b6040516103e691906128d5565b60405180910390f35b3480156103fb57600080fd5b5061041660048036038101906104119190612998565b6110b9565b005b34801561042457600080fd5b5061043f600480360381019061043a9190612a1b565b61111b565b005b34801561044d57600080fd5b5061046860048036038101906104639190612363565b61121c565b604051610475919061230b565b60405180910390f35b34801561048a57600080fd5b506104a560048036038101906104a09190612a6e565b611284565b6040516104b29190612260565b60405180910390f35b60007f80ac58cd000000000000000000000000000000000000000000000000000000007bffffffffffffffffffffffffffffffffffffffffffffffffffffffff1916827bffffffffffffffffffffffffffffffffffffffffffffffffffffffff1916148061058657507f5b5e139f000000000000000000000000000000000000000000000000000000007bffffffffffffffffffffffffffffffffffffffffffffffffffffffff1916827bffffffffffffffffffffffffffffffffffffffffffffffffffffffff1916145b80610596575061059582611318565b5b9050919050565b6060600080546105ac90612add565b80601f01602080910402602001604051908101604052809291908181526020018280546105d890612add565b80156106255780601f106105fa57610100808354040283529160200191610625565b820191906000526020600020905b81548152906001019060200180831161060857829003601f168201915b5050505050905090565b600061063a82611382565b6004600083815260200190815260200160002060009054906101000a900473ffffffffffffffffffffffffffffffffffffffff169050919050565b600061068082610d83565b90508073ffffffffffffffffffffffffffffffffffffffff168373ffffffffffffffffffffffffffffffffffffffff16036106f0576040517f08c379a00000000000000000000000000000000000000000000000000000000081526004016106e790612b80565b60405180910390fd5b8073ffffffffffffffffffffffffffffffffffffffff1661070f6113cd565b73ffffffffffffffffffffffffffffffffffffffff16148061073e575061073d816107386113cd565b611284565b5b61077d576040517f08c379a000000000000000000000000000000000000000000000000000000000815260040161077490612c12565b60405180910390fd5b61078783836113d5565b505050565b610794612142565b600660008381526020019081526020016000206040518060800160405290816000820160009054906101000a900460ff1660028111156107d7576107d6612458565b5b60028111156107e9576107e8612458565b5b81526020016000820160019054906101000a900473ffffffffffffffffffffffffffffffffffffffff1673ffffffffffffffffffffffffffffffffffffffff1673ffffffffffffffffffffffffffffffffffffffff168152602001600182015481526020016002820154815250509050919050565b61086f6108696113cd565b8261148e565b6108ae576040517f08c379a00000000000000000000000000000000000000000000000000000000081526004016108a590612ca4565b60405180910390fd5b6108b9838383611523565b505050565b60006006600083815260200190815260200160002090508060000160019054906101000a900473ffffffffffffffffffffffffffffffffffffffff1673ffffffffffffffffffffffffffffffffffffffff163373ffffffffffffffffffffffffffffffffffffffff1603610967576040517f08c379a000000000000000000000000000000000000000000000000000000000815260040161095e90612d10565b60405180910390fd5b6000600281111561097b5761097a612458565b5b8160000160009054906101000a900460ff16600281111561099f5761099e612458565b5b146109df576040517f08c379a00000000000000000000000000000000000000000000000000000000081526004016109d690612d7c565b60405180910390fd5b80600201543414610a25576040517f08c379a0000000000000000000000000000000000000000000000000000000008152600401610a1c90612de8565b60405180910390fd5b3073ffffffffffffffffffffffffffffffffffffffff166323b872dd303384600101546040518463ffffffff1660e01b8152600401610a6693929190612e08565b600060405180830381600087803b158015610a8057600080fd5b505af1158015610a94573d6000803e3d6000fd5b5050505060008160000160019054906101000a900473ffffffffffffffffffffffffffffffffffffffff1690508073ffffffffffffffffffffffffffffffffffffffff166108fc349081150290604051600060405180830381858888f19350505050158015610b07573d6000803e3d6000fd5b5060018260000160006101000a81548160ff02191690836002811115610b3057610b2f612458565b5b0217905550505050565b610b438361181c565b15610b83576040517f08c379a0000000000000000000000000000000000000000000000000000000008152600401610b7a90612e8b565b60405180910390fd5b610b8d848461185d565b610b9883838361187b565b50505050565b60006006600083815260200190815260200160002090508060000160019054906101000a900473ffffffffffffffffffffffffffffffffffffffff1673ffffffffffffffffffffffffffffffffffffffff163373ffffffffffffffffffffffffffffffffffffffff1614610c47576040517f08c379a0000000000000000000000000000000000000000000000000000000008152600401610c3e90612ef7565b60405180910390fd5b60006002811115610c5b57610c5a612458565b5b8160000160009054906101000a900460ff166002811115610c7f57610c7e612458565b5b14610cbf576040517f08c379a0000000000000000000000000000000000000000000000000000000008152600401610cb690612d7c565b60405180910390fd5b60028160000160006101000a81548160ff02191690836002811115610ce757610ce6612458565b5b02179055503073ffffffffffffffffffffffffffffffffffffffff166323b872dd303384600101546040518463ffffffff1660e01b8152600401610d2d93929190612e08565b600060405180830381600087803b158015610d4757600080fd5b505af1158015610d5b573d6000803e3d6000fd5b505050505050565b610d7e838383604051806020016040528060008152506110b9565b505050565b600080610d8f836118d7565b9050600073ffffffffffffffffffffffffffffffffffffffff168173ffffffffffffffffffffffffffffffffffffffff1603610e00576040517f08c379a0000000000000000000000000000000000000000000000000000000008152600401610df790612f63565b60405180910390fd5b80915050919050565b60008073ffffffffffffffffffffffffffffffffffffffff168273ffffffffffffffffffffffffffffffffffffffff1603610e79576040517f08c379a0000000000000000000000000000000000000000000000000000000008152600401610e7090612ff5565b60405180910390fd5b600360008373ffffffffffffffffffffffffffffffffffffffff1673ffffffffffffffffffffffffffffffffffffffff168152602001908152602001600020549050919050565b606060018054610ecf90612add565b80601f0160208091040260200160405190810160405280929190818152602001828054610efb90612add565b8015610f485780601f10610f1d57610100808354040283529160200191610f48565b820191906000526020600020905b815481529060010190602001808311610f2b57829003601f168201915b5050505050905090565b610f64610f5d6113cd565b8383611914565b5050565b610f70612192565b60076000838152602001908152602001600020604051806040016040529081600082018054610f9e90612add565b80601f0160208091040260200160405190810160405280929190818152602001828054610fca90612add565b80156110175780601f10610fec57610100808354040283529160200191611017565b820191906000526020600020905b815481529060010190602001808311610ffa57829003601f168201915b5050505050815260200160018201805461103090612add565b80601f016020809104026020016040519081016040528092919081815260200182805461105c90612add565b80156110a95780601f1061107e576101008083540402835291602001916110a9565b820191906000526020600020905b81548152906001019060200180831161108c57829003601f168201915b5050505050815250509050919050565b6110ca6110c46113cd565b8361148e565b611109576040517f08c379a000000000000000000000000000000000000000000000000000000000815260040161110090612ca4565b60405180910390fd5b61111584848484611a80565b50505050565b61112633308561085e565b600060405180608001604052806000600281111561114757611146612458565b5b81526020013373ffffffffffffffffffffffffffffffffffffffff168152602001858152602001848152509050806006600084815260200190815260200160002060008201518160000160006101000a81548160ff021916908360028111156111b3576111b2612458565b5b021790555060208201518160000160016101000a81548173ffffffffffffffffffffffffffffffffffffffff021916908373ffffffffffffffffffffffffffffffffffffffff160217905550604082015181600101556060820151816002015590505050505050565b606061122782611382565b6000611231611adc565b90506000815111611251576040518060200160405280600081525061127c565b8061125b84611af3565b60405160200161126c929190613051565b6040516020818303038152906040525b915050919050565b6000600560008473ffffffffffffffffffffffffffffffffffffffff1673ffffffffffffffffffffffffffffffffffffffff16815260200190815260200160002060008373ffffffffffffffffffffffffffffffffffffffff1673ffffffffffffffffffffffffffffffffffffffff16815260200190815260200160002060009054906101000a900460ff16905092915050565b60007f01ffc9a7000000000000000000000000000000000000000000000000000000007bffffffffffffffffffffffffffffffffffffffffffffffffffffffff1916827bffffffffffffffffffffffffffffffffffffffffffffffffffffffff1916149050919050565b61138b8161181c565b6113ca576040517f08c379a00000000000000000000000000000000000000000000000000000000081526004016113c190612f63565b60405180910390fd5b50565b600033905090565b816004600083815260200190815260200160002060006101000a81548173ffffffffffffffffffffffffffffffffffffffff021916908373ffffffffffffffffffffffffffffffffffffffff160217905550808273ffffffffffffffffffffffffffffffffffffffff1661144883610d83565b73ffffffffffffffffffffffffffffffffffffffff167f8c5be1e5ebec7d5bd14f71427d1e84f3dd0314c0f7b2291e5b200ac8c7c3b92560405160405180910390a45050565b60008061149a83610d83565b90508073ffffffffffffffffffffffffffffffffffffffff168473ffffffffffffffffffffffffffffffffffffffff1614806114dc57506114db8185611284565b5b8061151a57508373ffffffffffffffffffffffffffffffffffffffff166115028461062f565b73ffffffffffffffffffffffffffffffffffffffff16145b91505092915050565b8273ffffffffffffffffffffffffffffffffffffffff1661154382610d83565b73ffffffffffffffffffffffffffffffffffffffff1614611599576040517f08c379a0000000000000000000000000000000000000000000000000000000008152600401611590906130e7565b60405180910390fd5b600073ffffffffffffffffffffffffffffffffffffffff168273ffffffffffffffffffffffffffffffffffffffff1603611608576040517f08c379a00000000000000000000000000000000000000000000000000000000081526004016115ff90613179565b60405180910390fd5b6116158383836001611bc1565b8273ffffffffffffffffffffffffffffffffffffffff1661163582610d83565b73ffffffffffffffffffffffffffffffffffffffff161461168b576040517f08c379a0000000000000000000000000000000000000000000000000000000008152600401611682906130e7565b60405180910390fd5b6004600082815260200190815260200160002060006101000a81549073ffffffffffffffffffffffffffffffffffffffff02191690556001600360008573ffffffffffffffffffffffffffffffffffffffff1673ffffffffffffffffffffffffffffffffffffffff168152602001908152602001600020600082825403925050819055506001600360008473ffffffffffffffffffffffffffffffffffffffff1673ffffffffffffffffffffffffffffffffffffffff16815260200190815260200160002060008282540192505081905550816002600083815260200190815260200160002060006101000a81548173ffffffffffffffffffffffffffffffffffffffff021916908373ffffffffffffffffffffffffffffffffffffffff160217905550808273ffffffffffffffffffffffffffffffffffffffff168473ffffffffffffffffffffffffffffffffffffffff167fddf252ad1be2c89b69c2b068fc378daa952ba7f163c4a11628f55a4df523b3ef60405160405180910390a46118178383836001611bc7565b505050565b60008073ffffffffffffffffffffffffffffffffffffffff1661183e836118d7565b73ffffffffffffffffffffffffffffffffffffffff1614159050919050565b611877828260405180602001604052806000815250611bcd565b5050565b6040518060400160405280838152602001828152506007600085815260200190815260200160002060008201518160000190816118b89190613345565b5060208201518160010190816118ce9190613345565b50905050505050565b60006002600083815260200190815260200160002060009054906101000a900473ffffffffffffffffffffffffffffffffffffffff169050919050565b8173ffffffffffffffffffffffffffffffffffffffff168373ffffffffffffffffffffffffffffffffffffffff1603611982576040517f08c379a000000000000000000000000000000000000000000000000000000000815260040161197990613463565b60405180910390fd5b80600560008573ffffffffffffffffffffffffffffffffffffffff1673ffffffffffffffffffffffffffffffffffffffff16815260200190815260200160002060008473ffffffffffffffffffffffffffffffffffffffff1673ffffffffffffffffffffffffffffffffffffffff16815260200190815260200160002060006101000a81548160ff0219169083151502179055508173ffffffffffffffffffffffffffffffffffffffff168373ffffffffffffffffffffffffffffffffffffffff167f17307eab39ab6107e8899845ad3d59bd9653f200f220920489ca2b5937696c3183604051611a739190612260565b60405180910390a3505050565b611a8b848484611523565b611a9784848484611c28565b611ad6576040517f08c379a0000000000000000000000000000000000000000000000000000000008152600401611acd906134f5565b60405180910390fd5b50505050565b606060405180602001604052806000815250905090565b606060006001611b0284611daf565b01905060008167ffffffffffffffff811115611b2157611b206125ba565b5b6040519080825280601f01601f191660200182016040528015611b535781602001600182028036833780820191505090505b509050600082602001820190505b600115611bb6578080600190039150507f3031323334353637383961626364656600000000000000000000000000000000600a86061a8153600a8581611baa57611ba9613515565b5b04945060008503611b61575b819350505050919050565b50505050565b50505050565b611bd78383611f02565b611be46000848484611c28565b611c23576040517f08c379a0000000000000000000000000000000000000000000000000000000008152600401611c1a906134f5565b60405180910390fd5b505050565b6000611c498473ffffffffffffffffffffffffffffffffffffffff1661211f565b15611da2578373ffffffffffffffffffffffffffffffffffffffff1663150b7a02611c726113cd565b8786866040518563ffffffff1660e01b8152600401611c949493929190613599565b6020604051808303816000875af1925050508015611cd057506040513d601f19601f82011682018060405250810190611ccd91906135fa565b60015b611d52573d8060008114611d00576040519150601f19603f3d011682016040523d82523d6000602084013e611d05565b606091505b506000815103611d4a576040517f08c379a0000000000000000000000000000000000000000000000000000000008152600401611d41906134f5565b60405180910390fd5b805181602001fd5b63150b7a0260e01b7bffffffffffffffffffffffffffffffffffffffffffffffffffffffff1916817bffffffffffffffffffffffffffffffffffffffffffffffffffffffff191614915050611da7565b600190505b949350505050565b600080600090507a184f03e93ff9f4daa797ed6e38ed64bf6a1f0100000000000000008310611e0d577a184f03e93ff9f4daa797ed6e38ed64bf6a1f0100000000000000008381611e0357611e02613515565b5b0492506040810190505b6d04ee2d6d415b85acef81000000008310611e4a576d04ee2d6d415b85acef81000000008381611e4057611e3f613515565b5b0492506020810190505b662386f26fc100008310611e7957662386f26fc100008381611e6f57611e6e613515565b5b0492506010810190505b6305f5e1008310611ea2576305f5e1008381611e9857611e97613515565b5b0492506008810190505b6127108310611ec7576127108381611ebd57611ebc613515565b5b0492506004810190505b60648310611eea5760648381611ee057611edf613515565b5b0492506002810190505b600a8310611ef9576001810190505b80915050919050565b600073ffffffffffffffffffffffffffffffffffffffff168273ffffffffffffffffffffffffffffffffffffffff1603611f71576040517f08c379a0000000000000000000000000000000000000000000000000000000008152600401611f6890613673565b60405180910390fd5b611f7a8161181c565b15611fba576040517f08c379a0000000000000000000000000000000000000000000000000000000008152600401611fb1906136df565b60405180910390fd5b611fc8600083836001611bc1565b611fd18161181c565b15612011576040517f08c379a0000000000000000000000000000000000000000000000000000000008152600401612008906136df565b60405180910390fd5b6001600360008473ffffffffffffffffffffffffffffffffffffffff1673ffffffffffffffffffffffffffffffffffffffff16815260200190815260200160002060008282540192505081905550816002600083815260200190815260200160002060006101000a81548173ffffffffffffffffffffffffffffffffffffffff021916908373ffffffffffffffffffffffffffffffffffffffff160217905550808273ffffffffffffffffffffffffffffffffffffffff16600073ffffffffffffffffffffffffffffffffffffffff167fddf252ad1be2c89b69c2b068fc378daa952ba7f163c4a11628f55a4df523b3ef60405160405180910390a461211b600083836001611bc7565b5050565b6000808273ffffffffffffffffffffffffffffffffffffffff163b119050919050565b60405180608001604052806000600281111561216157612160612458565b5b8152602001600073ffffffffffffffffffffffffffffffffffffffff16815260200160008152602001600081525090565b604051806040016040528060608152602001606081525090565b6000604051905090565b600080fd5b600080fd5b60007fffffffff0000000000000000000000000000000000000000000000000000000082169050919050565b6121f5816121c0565b811461220057600080fd5b50565b600081359050612212816121ec565b92915050565b60006020828403121561222e5761222d6121b6565b5b600061223c84828501612203565b91505092915050565b60008115159050919050565b61225a81612245565b82525050565b60006020820190506122756000830184612251565b92915050565b600081519050919050565b600082825260208201905092915050565b60005b838110156122b557808201518184015260208101905061229a565b60008484015250505050565b6000601f19601f8301169050919050565b60006122dd8261227b565b6122e78185612286565b93506122f7818560208601612297565b612300816122c1565b840191505092915050565b6000602082019050818103600083015261232581846122d2565b905092915050565b6000819050919050565b6123408161232d565b811461234b57600080fd5b50565b60008135905061235d81612337565b92915050565b600060208284031215612379576123786121b6565b5b60006123878482850161234e565b91505092915050565b600073ffffffffffffffffffffffffffffffffffffffff82169050919050565b60006123bb82612390565b9050919050565b6123cb816123b0565b82525050565b60006020820190506123e660008301846123c2565b92915050565b6123f5816123b0565b811461240057600080fd5b50565b600081359050612412816123ec565b92915050565b6000806040838503121561242f5761242e6121b6565b5b600061243d85828601612403565b925050602061244e8582860161234e565b9150509250929050565b7f4e487b7100000000000000000000000000000000000000000000000000000000600052602160045260246000fd5b6003811061249857612497612458565b5b50565b60008190506124a982612487565b919050565b60006124b98261249b565b9050919050565b6124c9816124ae565b82525050565b6124d8816123b0565b82525050565b6124e78161232d565b82525050565b60808201600082015161250360008501826124c0565b50602082015161251660208501826124cf565b50604082015161252960408501826124de565b50606082015161253c60608501826124de565b50505050565b600060808201905061255760008301846124ed565b92915050565b600080600060608486031215612576576125756121b6565b5b600061258486828701612403565b935050602061259586828701612403565b92505060406125a68682870161234e565b9150509250925092565b600080fd5b600080fd5b7f4e487b7100000000000000000000000000000000000000000000000000000000600052604160045260246000fd5b6125f2826122c1565b810181811067ffffffffffffffff82111715612611576126106125ba565b5b80604052505050565b60006126246121ac565b905061263082826125e9565b919050565b600067ffffffffffffffff8211156126505761264f6125ba565b5b612659826122c1565b9050602081019050919050565b82818337600083830152505050565b600061268861268384612635565b61261a565b9050828152602081018484840111156126a4576126a36125b5565b5b6126af848285612666565b509392505050565b600082601f8301126126cc576126cb6125b0565b5b81356126dc848260208601612675565b91505092915050565b600080600080608085870312156126ff576126fe6121b6565b5b600061270d87828801612403565b945050602061271e8782880161234e565b935050604085013567ffffffffffffffff81111561273f5761273e6121bb565b5b61274b878288016126b7565b925050606085013567ffffffffffffffff81111561276c5761276b6121bb565b5b612778878288016126b7565b91505092959194509250565b60006020828403121561279a576127996121b6565b5b60006127a884828501612403565b91505092915050565b6127ba8161232d565b82525050565b60006020820190506127d560008301846127b1565b92915050565b6127e481612245565b81146127ef57600080fd5b50565b600081359050612801816127db565b92915050565b6000806040838503121561281e5761281d6121b6565b5b600061282c85828601612403565b925050602061283d858286016127f2565b9150509250929050565b600082825260208201905092915050565b60006128638261227b565b61286d8185612847565b935061287d818560208601612297565b612886816122c1565b840191505092915050565b600060408301600083015184820360008601526128ae8282612858565b915050602083015184820360208601526128c88282612858565b9150508091505092915050565b600060208201905081810360008301526128ef8184612891565b905092915050565b600067ffffffffffffffff821115612912576129116125ba565b5b61291b826122c1565b9050602081019050919050565b600061293b612936846128f7565b61261a565b905082815260208101848484011115612957576129566125b5565b5b612962848285612666565b509392505050565b600082601f83011261297f5761297e6125b0565b5b813561298f848260208601612928565b91505092915050565b600080600080608085870312156129b2576129b16121b6565b5b60006129c087828801612403565b94505060206129d187828801612403565b93505060406129e28782880161234e565b925050606085013567ffffffffffffffff811115612a0357612a026121bb565b5b612a0f8782880161296a565b91505092959194509250565b600080600060608486031215612a3457612a336121b6565b5b6000612a428682870161234e565b9350506020612a538682870161234e565b9250506040612a648682870161234e565b9150509250925092565b60008060408385031215612a8557612a846121b6565b5b6000612a9385828601612403565b9250506020612aa485828601612403565b9150509250929050565b7f4e487b7100000000000000000000000000000000000000000000000000000000600052602260045260246000fd5b60006002820490506001821680612af557607f821691505b602082108103612b0857612b07612aae565b5b50919050565b7f4552433732313a20617070726f76616c20746f2063757272656e74206f776e6560008201527f7200000000000000000000000000000000000000000000000000000000000000602082015250565b6000612b6a602183612286565b9150612b7582612b0e565b604082019050919050565b60006020820190508181036000830152612b9981612b5d565b9050919050565b7f4552433732313a20617070726f76652063616c6c6572206973206e6f7420746f60008201527f6b656e206f776e6572206f7220617070726f76656420666f7220616c6c000000602082015250565b6000612bfc603d83612286565b9150612c0782612ba0565b604082019050919050565b60006020820190508181036000830152612c2b81612bef565b9050919050565b7f4552433732313a2063616c6c6572206973206e6f7420746f6b656e206f776e6560008201527f72206f7220617070726f76656400000000000000000000000000000000000000602082015250565b6000612c8e602d83612286565b9150612c9982612c32565b604082019050919050565b60006020820190508181036000830152612cbd81612c81565b9050919050565b7f596f7520617265207468652073656c6c6572206f6620746865206974656d0000600082015250565b6000612cfa601e83612286565b9150612d0582612cc4565b602082019050919050565b60006020820190508181036000830152612d2981612ced565b9050919050565b7f4c697374696e67206973206e6f74206163746976650000000000000000000000600082015250565b6000612d66601583612286565b9150612d7182612d30565b602082019050919050565b60006020820190508181036000830152612d9581612d59565b9050919050565b7f5061796d656e742068617320746f207468652073616d65206173207072696365600082015250565b6000612dd2602083612286565b9150612ddd82612d9c565b602082019050919050565b60006020820190508181036000830152612e0181612dc5565b9050919050565b6000606082019050612e1d60008301866123c2565b612e2a60208301856123c2565b612e3760408301846127b1565b949350505050565b7f546f6b656e20616c726561647920657869737473000000000000000000000000600082015250565b6000612e75601483612286565b9150612e8082612e3f565b602082019050919050565b60006020820190508181036000830152612ea481612e68565b9050919050565b7f4f6e6c792073656c6c65722063616e2063616e63656c206c697374696e670000600082015250565b6000612ee1601e83612286565b9150612eec82612eab565b602082019050919050565b60006020820190508181036000830152612f1081612ed4565b9050919050565b7f4552433732313a20696e76616c696420746f6b656e2049440000000000000000600082015250565b6000612f4d601883612286565b9150612f5882612f17565b602082019050919050565b60006020820190508181036000830152612f7c81612f40565b9050919050565b7f4552433732313a2061646472657373207a65726f206973206e6f74206120766160008201527f6c6964206f776e65720000000000000000000000000000000000000000000000602082015250565b6000612fdf602983612286565b9150612fea82612f83565b604082019050919050565b6000602082019050818103600083015261300e81612fd2565b9050919050565b600081905092915050565b600061302b8261227b565b6130358185613015565b9350613045818560208601612297565b80840191505092915050565b600061305d8285613020565b91506130698284613020565b91508190509392505050565b7f4552433732313a207472616e736665722066726f6d20696e636f72726563742060008201527f6f776e6572000000000000000000000000000000000000000000000000000000602082015250565b60006130d1602583612286565b91506130dc82613075565b604082019050919050565b60006020820190508181036000830152613100816130c4565b9050919050565b7f4552433732313a207472616e7366657220746f20746865207a65726f2061646460008201527f7265737300000000000000000000000000000000000000000000000000000000602082015250565b6000613163602483612286565b915061316e82613107565b604082019050919050565b6000602082019050818103600083015261319281613156565b9050919050565b60008190508160005260206000209050919050565b60006020601f8301049050919050565b600082821b905092915050565b6000600883026131fb7fffffffffffffffffffffffffffffffffffffffffffffffffffffffffffffffff826131be565b61320586836131be565b95508019841693508086168417925050509392505050565b6000819050919050565b600061324261323d6132388461232d565b61321d565b61232d565b9050919050565b6000819050919050565b61325c83613227565b61327061326882613249565b8484546131cb565b825550505050565b600090565b613285613278565b613290818484613253565b505050565b5b818110156132b4576132a960008261327d565b600181019050613296565b5050565b601f8211156132f9576132ca81613199565b6132d3846131ae565b810160208510156132e2578190505b6132f66132ee856131ae565b830182613295565b50505b505050565b600082821c905092915050565b600061331c600019846008026132fe565b1980831691505092915050565b6000613335838361330b565b9150826002028217905092915050565b61334e8261227b565b67ffffffffffffffff811115613367576133666125ba565b5b6133718254612add565b61337c8282856132b8565b600060209050601f8311600181146133af576000841561339d578287015190505b6133a78582613329565b86555061340f565b601f1984166133bd86613199565b60005b828110156133e5578489015182556001820191506020850194506020810190506133c0565b8683101561340257848901516133fe601f89168261330b565b8355505b6001600288020188555050505b505050505050565b7f4552433732313a20617070726f766520746f2063616c6c657200000000000000600082015250565b600061344d601983612286565b915061345882613417565b602082019050919050565b6000602082019050818103600083015261347c81613440565b9050919050565b7f4552433732313a207472616e7366657220746f206e6f6e20455243373231526560008201527f63656976657220696d706c656d656e7465720000000000000000000000000000602082015250565b60006134df603283612286565b91506134ea82613483565b604082019050919050565b6000602082019050818103600083015261350e816134d2565b9050919050565b7f4e487b7100000000000000000000000000000000000000000000000000000000600052601260045260246000fd5b600081519050919050565b600082825260208201905092915050565b600061356b82613544565b613575818561354f565b9350613585818560208601612297565b61358e816122c1565b840191505092915050565b60006080820190506135ae60008301876123c2565b6135bb60208301866123c2565b6135c860408301856127b1565b81810360608301526135da8184613560565b905095945050505050565b6000815190506135f4816121ec565b92915050565b6000602082840312156136105761360f6121b6565b5b600061361e848285016135e5565b91505092915050565b7f4552433732313a206d696e7420746f20746865207a65726f2061646472657373600082015250565b600061365d602083612286565b915061366882613627565b602082019050919050565b6000602082019050818103600083015261368c81613650565b9050919050565b7f4552433732313a20746f6b656e20616c7265616479206d696e74656400000000600082015250565b60006136c9601c83612286565b91506136d482613693565b602082019050919050565b600060208201905081810360008301526136f8816136bc565b905091905056fea2646970667358221220175cf53cada2e19f60505ca96526b25f310c85eb7e04e73a57282581e11dcd1c64736f6c63430008130033",
  "immutableReferences": {},
  "source": "// SPDX-License-Identifier: MIT\npragma solidity ^0.8.9;\n\nimport \"@openzeppelin/contracts/token/ERC721/ERC721.sol\";\n\ncontract NFT is ERC721 {\n\tconstructor() ERC721(\"Coolest NFT\", \"NFT\") {}\n\n    struct TokenData {\n        string name;\n        string description;\n    }\n\tenum ListingStatus {\n\t\tActive,\n\t\tSold,\n\t\tCancelled\n\t}\n\n\tstruct Listing {\n\t\tListingStatus status;\n\t\taddress seller;\n\t\tuint tokenId;\n\t\tuint price;\n\t}\n\n\tevent Listed(\n\t\tuint listingId,\n\t\taddress seller,\n\t\tuint tokenId,\n\t\tuint price\n\t);\n\n\tmapping(uint => Listing) private _listings;\n\t\t\n\tmapping(uint256 => TokenData) private _tokenData;\n\n    function mint(address to,uint256 tokenId,string memory name,string memory description) public {\n\t\trequire(!_exists(tokenId), \"Token already exists\");\n        _safeMint(to, tokenId);\n        _setTokenData(tokenId, name, description);\n    }\n\n    function getTokenData(uint256 tokenId) public view returns (TokenData memory) {\n        return _tokenData[tokenId];\n    }\n\n    function _setTokenData(uint256 tokenId, string memory name, string memory description) internal {\n        _tokenData[tokenId] = TokenData(name, description);\n    }\n\n\tfunction listToken(uint tokenId, uint price, uint listingId) public {\n\t\ttransferFrom(msg.sender, address(this), tokenId);\n\n\t\tListing memory listing = Listing(\n\t\t\tListingStatus.Active,\n\t\t\tmsg.sender,\n\t\t\ttokenId,\n\t\t\tprice\n\t\t);\n\n\t\t_listings[listingId] = listing;\n\t}\n\n\tfunction getListing(uint listingId) public view returns (Listing memory) {\n\t\treturn _listings[listingId];\n\t}\n\n\tfunction buyToken(uint listingId) public payable {\n\t\tListing storage listing = _listings[listingId];\n\n\t\trequire(msg.sender != listing.seller, \"You are the seller of the item\");\n\t\trequire(listing.status == ListingStatus.Active, \"Listing is not active\");\n\t\trequire(msg.value == listing.price, \"Payment has to the same as price\");\n\n\t\tIERC721(address(this)).transferFrom(address(this), msg.sender, listing.tokenId);\n\n\t\taddress payable seller = payable(listing.seller);\n\t\tseller.transfer(msg.value);\n\n\t\tlisting.status = ListingStatus.Sold;\n\t}\n\n\tfunction cancel(uint listingId) public {\n\t\tListing storage listing = _listings[listingId];\n\n\t\trequire(msg.sender == listing.seller, \"Only seller can cancel listing\");\n\t\trequire(listing.status == ListingStatus.Active, \"Listing is not active\");\n\n\t\tlisting.status = ListingStatus.Cancelled;\n\t\n\t\tIERC721(address(this)).transferFrom(address(this), msg.sender, listing.tokenId);\n\t}\n}",
  "sourcePath": "C:\\Users\\zhang\\Desktop\\Ethereum_NFT_Market-main\\Ethereum_NFT_Market-main\\contracts\\_NFT.sol",
  "compiler": {
    "name": "solc",
    "version": "0.8.19+commit.7dd6d404.Emscripten.clang"
  },
  "schemaVersion": "3.4.13",
  "updatedAt": "2023-05-07T16:30:29.633Z",
  "devdoc": {
    "events": {
      "Approval(address,address,uint256)": {
        "details": "Emitted when `owner` enables `approved` to manage the `tokenId` token."
      },
      "ApprovalForAll(address,address,bool)": {
        "details": "Emitted when `owner` enables or disables (`approved`) `operator` to manage all of its assets."
      },
      "Transfer(address,address,uint256)": {
        "details": "Emitted when `tokenId` token is transferred from `from` to `to`."
      }
    },
    "kind": "dev",
    "methods": {
      "approve(address,uint256)": {
        "details": "See {IERC721-approve}."
      },
      "balanceOf(address)": {
        "details": "See {IERC721-balanceOf}."
      },
      "getApproved(uint256)": {
        "details": "See {IERC721-getApproved}."
      },
      "isApprovedForAll(address,address)": {
        "details": "See {IERC721-isApprovedForAll}."
      },
      "name()": {
        "details": "See {IERC721Metadata-name}."
      },
      "ownerOf(uint256)": {
        "details": "See {IERC721-ownerOf}."
      },
      "safeTransferFrom(address,address,uint256)": {
        "details": "See {IERC721-safeTransferFrom}."
      },
      "safeTransferFrom(address,address,uint256,bytes)": {
        "details": "See {IERC721-safeTransferFrom}."
      },
      "setApprovalForAll(address,bool)": {
        "details": "See {IERC721-setApprovalForAll}."
      },
      "supportsInterface(bytes4)": {
        "details": "See {IERC165-supportsInterface}."
      },
      "symbol()": {
        "details": "See {IERC721Metadata-symbol}."
      },
      "tokenURI(uint256)": {
        "details": "See {IERC721Metadata-tokenURI}."
      },
      "transferFrom(address,address,uint256)": {
        "details": "See {IERC721-transferFrom}."
      }
    },
    "version": 1
  },
  "userdoc": {
    "kind": "user",
    "methods": {},
    "version": 1
  }
}